{
  "_format": "hh-sol-artifact-1",
  "contractName": "ChuckALuck",
  "sourceName": "contracts/ChuckALuck.sol",
  "abi": [
    {
      "inputs": [],
      "stateMutability": "payable",
      "type": "constructor"
    },
    {
      "anonymous": false,
      "inputs": [
        {
          "indexed": false,
          "internalType": "uint8",
          "name": "roll0",
          "type": "uint8"
        },
        {
          "indexed": false,
          "internalType": "uint8",
          "name": "roll1",
          "type": "uint8"
        },
        {
          "indexed": false,
          "internalType": "uint8",
          "name": "roll2",
          "type": "uint8"
        },
        {
          "indexed": false,
          "internalType": "uint256",
          "name": "prizeAmpunt",
          "type": "uint256"
        }
      ],
      "name": "NewBet",
      "type": "event"
    },
    {
      "inputs": [
        {
          "internalType": "uint8",
          "name": "number",
          "type": "uint8"
        }
      ],
      "name": "bet",
      "outputs": [
        {
          "internalType": "uint256",
          "name": "",
          "type": "uint256"
        }
      ],
      "stateMutability": "payable",
      "type": "function"
    },
    {
      "inputs": [],
      "name": "getAllBets",
      "outputs": [
        {
          "components": [
            {
              "internalType": "address",
              "name": "player",
              "type": "address"
            },
            {
              "internalType": "uint8",
              "name": "number",
              "type": "uint8"
            },
            {
              "internalType": "uint256",
              "name": "amount",
              "type": "uint256"
            },
            {
              "internalType": "uint8",
              "name": "roll0",
              "type": "uint8"
            },
            {
              "internalType": "uint8",
              "name": "roll1",
              "type": "uint8"
            },
            {
              "internalType": "uint8",
              "name": "roll2",
              "type": "uint8"
            },
            {
              "internalType": "uint256",
              "name": "prize",
              "type": "uint256"
            },
            {
              "internalType": "uint256",
              "name": "timestamp",
              "type": "uint256"
            }
          ],
          "internalType": "struct ChuckALuck.Bet[]",
          "name": "",
          "type": "tuple[]"
        }
      ],
      "stateMutability": "view",
      "type": "function"
    }
  ],
  "bytecode": "0x60806040526200004f6040518060400160405280601681526020017f436875636b414c75636b20436f6e7374727563746f72000000000000000000008152506200005560201b620005a61760201c565b620001e9565b620000f5816040516024016200006c919062000162565b6040516020818303038152906040527f41304fac000000000000000000000000000000000000000000000000000000007bffffffffffffffffffffffffffffffffffffffffffffffffffffffff19166020820180517bffffffffffffffffffffffffffffffffffffffffffffffffffffffff8381831617835250505050620000f860201b60201c565b50565b60008151905060006a636f6e736f6c652e6c6f679050602083016000808483855afa5050505050565b60006200012e8262000186565b6200013a818562000191565b93506200014c818560208601620001a2565b6200015781620001d8565b840191505092915050565b600060208201905081810360008301526200017e818462000121565b905092915050565b600081519050919050565b600082825260208201905092915050565b60005b83811015620001c2578082015181840152602081019050620001a5565b83811115620001d2576000848401525b50505050565b6000601f19601f8301169050919050565b610ecd80620001f96000396000f3fe6080604052600436106100295760003560e01c8063700eae731461002e578063d0821b0e14610059575b600080fd5b34801561003a57600080fd5b50610043610089565b6040516100509190610b28565b60405180910390f35b610073600480360381019061006e9190610804565b6101d1565b6040516100809190610c44565b60405180910390f35b60606000805480602002602001604051908101604052809291908181526020016000905b828210156101c85783829060005260206000209060050201604051806101000160405290816000820160009054906101000a900473ffffffffffffffffffffffffffffffffffffffff1673ffffffffffffffffffffffffffffffffffffffff1673ffffffffffffffffffffffffffffffffffffffff1681526020016000820160149054906101000a900460ff1660ff1660ff168152602001600182015481526020016002820160009054906101000a900460ff1660ff1660ff1681526020016002820160019054906101000a900460ff1660ff1660ff1681526020016002820160029054906101000a900460ff1660ff1660ff16815260200160038201548152602001600482015481525050815260200190600101906100ad565b50505050905090565b60006102176040518060400160405280601f81526020017f57616c6c65742025732c206f6e206e756d6265722025732c2062657420257300815250338460ff163461063f565b600061022360006106e1565b9050600061023160016106e1565b9050600061023f60026106e1565b905061028b6040518060400160405280601c81526020017f726f6c6c302025732020726f6c6c312025732020726f6c6c32202573000000008152508460ff168460ff168460ff16610724565b60008560ff168460ff1614156102aa5734816102a79190610d04565b90505b8560ff168360ff1614156102c75734816102c49190610d04565b90505b8560ff168260ff1614156102e45734816102e19190610d04565b90505b600081146103eb5734816102f89190610d04565b90504781111561033d576040517f08c379a000000000000000000000000000000000000000000000000000000000815260040161033490610c04565b60405180910390fd5b60003373ffffffffffffffffffffffffffffffffffffffff168260405161036390610ad6565b60006040518083038185875af1925050503d80600081146103a0576040519150601f19603f3d011682016040523d82523d6000602084013e6103a5565b606091505b50509050806103e9576040517f08c379a00000000000000000000000000000000000000000000000000000000081526004016103e090610c24565b60405180910390fd5b505b7f164aba0dd9d84262e5e33ca772720f475c91cb333ea8e1feb59fa116fe196dc3848484846040516104209493929190610c5f565b60405180910390a160006040518061010001604052803373ffffffffffffffffffffffffffffffffffffffff1681526020018860ff1681526020013481526020018660ff1681526020018560ff1681526020018460ff16815260200183815260200142815250908060018154018082558091505060019003906000526020600020906005020160009091909190915060008201518160000160006101000a81548173ffffffffffffffffffffffffffffffffffffffff021916908373ffffffffffffffffffffffffffffffffffffffff16021790555060208201518160000160146101000a81548160ff021916908360ff1602179055506040820151816001015560608201518160020160006101000a81548160ff021916908360ff16021790555060808201518160020160016101000a81548160ff021916908360ff16021790555060a08201518160020160026101000a81548160ff021916908360ff16021790555060c0820151816003015560e08201518160040155505080945050505050919050565b61063c816040516024016105ba9190610b4a565b6040516020818303038152906040527f41304fac000000000000000000000000000000000000000000000000000000007bffffffffffffffffffffffffffffffffffffffffffffffffffffffff19166020820180517bffffffffffffffffffffffffffffffffffffffffffffffffffffffff83818316178352505050506107c6565b50565b6106db848484846040516024016106599493929190610b6c565b6040516020818303038152906040527fdaa394bd000000000000000000000000000000000000000000000000000000007bffffffffffffffffffffffffffffffffffffffffffffffffffffffff19166020820180517bffffffffffffffffffffffffffffffffffffffffffffffffffffffff83818316178352505050506107c6565b50505050565b600060064244846040516020016106fa93929190610aeb565b6040516020818303038152906040528051906020012060001c61071d9190610de0565b9050919050565b6107c08484848460405160240161073e9493929190610bb8565b6040516020818303038152906040527f08ee5666000000000000000000000000000000000000000000000000000000007bffffffffffffffffffffffffffffffffffffffffffffffffffffffff19166020820180517bffffffffffffffffffffffffffffffffffffffffffffffffffffffff83818316178352505050506107c6565b50505050565b60008151905060006a636f6e736f6c652e6c6f679050602083016000808483855afa5050505050565b6000813590506107fe81610e80565b92915050565b60006020828403121561081657600080fd5b6000610824848285016107ef565b91505092915050565b600061083983836109e1565b6101008301905092915050565b61084f81610d5a565b82525050565b61085e81610d5a565b82525050565b600061086f82610cb4565b6108798185610cd7565b935061088483610ca4565b8060005b838110156108b557815161089c888261082d565b97506108a783610cca565b925050600181019050610888565b5085935050505092915050565b60006108cd82610cbf565b6108d78185610cf3565b93506108e7818560208601610da3565b6108f081610e6f565b840191505092915050565b6000610908603483610cf3565b91507f547279696e6720746f207769746864726177206d6f7265206d6f6e657920746860008301527f616e2074686520636f6e7472616374206861732e0000000000000000000000006020830152604082019050919050565b600061096e602783610cf3565b91507f4661696c656420746f207769746864726177206d6f6e65792066726f6d20636f60008301527f6e74726163742e000000000000000000000000000000000000000000000000006020830152604082019050919050565b60006109d4600083610ce8565b9150600082019050919050565b610100820160008201516109f86000850182610846565b506020820151610a0b6020850182610ab8565b506040820151610a1e6040850182610a83565b506060820151610a316060850182610ab8565b506080820151610a446080850182610ab8565b5060a0820151610a5760a0850182610ab8565b5060c0820151610a6a60c0850182610a83565b5060e0820151610a7d60e0850182610a83565b50505050565b610a8c81610d8c565b82525050565b610a9b81610d8c565b82525050565b610ab2610aad82610d8c565b610dd6565b82525050565b610ac181610d96565b82525050565b610ad081610d96565b82525050565b6000610ae1826109c7565b9150819050919050565b6000610af78286610aa1565b602082019150610b078285610aa1565b602082019150610b178284610aa1565b602082019150819050949350505050565b60006020820190508181036000830152610b428184610864565b905092915050565b60006020820190508181036000830152610b6481846108c2565b905092915050565b60006080820190508181036000830152610b8681876108c2565b9050610b956020830186610855565b610ba26040830185610a92565b610baf6060830184610a92565b95945050505050565b60006080820190508181036000830152610bd281876108c2565b9050610be16020830186610a92565b610bee6040830185610a92565b610bfb6060830184610a92565b95945050505050565b60006020820190508181036000830152610c1d816108fb565b9050919050565b60006020820190508181036000830152610c3d81610961565b9050919050565b6000602082019050610c596000830184610a92565b92915050565b6000608082019050610c746000830187610ac7565b610c816020830186610ac7565b610c8e6040830185610ac7565b610c9b6060830184610a92565b95945050505050565b6000819050602082019050919050565b600081519050919050565b600081519050919050565b6000602082019050919050565b600082825260208201905092915050565b600081905092915050565b600082825260208201905092915050565b6000610d0f82610d8c565b9150610d1a83610d8c565b9250827fffffffffffffffffffffffffffffffffffffffffffffffffffffffffffffffff03821115610d4f57610d4e610e11565b5b828201905092915050565b6000610d6582610d6c565b9050919050565b600073ffffffffffffffffffffffffffffffffffffffff82169050919050565b6000819050919050565b600060ff82169050919050565b60005b83811015610dc1578082015181840152602081019050610da6565b83811115610dd0576000848401525b50505050565b6000819050919050565b6000610deb82610d8c565b9150610df683610d8c565b925082610e0657610e05610e40565b5b828206905092915050565b7f4e487b7100000000000000000000000000000000000000000000000000000000600052601160045260246000fd5b7f4e487b7100000000000000000000000000000000000000000000000000000000600052601260045260246000fd5b6000601f19601f8301169050919050565b610e8981610d96565b8114610e9457600080fd5b5056fea264697066735822122099460de84dec62d3d97d9c3faaa20083aa75ce43cccaeee935cb7f2ed41eb71964736f6c63430008000033",
  "linkReferences": {},
  "deployedLinkReferences": {}
}