{
  "_format": "hh-sol-artifact-1",
  "contractName": "ChuckALuck",
  "sourceName": "contracts/ChuckALuck.sol",
  "abi": [
    {
      "inputs": [],
      "stateMutability": "payable",
      "type": "constructor"
    },
    {
      "anonymous": false,
      "inputs": [
        {
          "indexed": false,
          "internalType": "uint8",
          "name": "roll0",
          "type": "uint8"
        },
        {
          "indexed": false,
          "internalType": "uint8",
          "name": "roll1",
          "type": "uint8"
        },
        {
          "indexed": false,
          "internalType": "uint8",
          "name": "roll2",
          "type": "uint8"
        },
        {
          "indexed": false,
          "internalType": "uint256",
          "name": "prizeAmpunt",
          "type": "uint256"
        }
      ],
      "name": "NewBet",
      "type": "event"
    },
    {
      "inputs": [
        {
          "internalType": "uint8",
          "name": "number",
          "type": "uint8"
        }
      ],
      "name": "bet",
      "outputs": [
        {
          "internalType": "uint256",
          "name": "",
          "type": "uint256"
        }
      ],
      "stateMutability": "payable",
      "type": "function"
    },
    {
      "inputs": [],
      "name": "getAllBets",
      "outputs": [
        {
          "components": [
            {
              "internalType": "address",
              "name": "player",
              "type": "address"
            },
            {
              "internalType": "uint8",
              "name": "number",
              "type": "uint8"
            },
            {
              "internalType": "uint256",
              "name": "amount",
              "type": "uint256"
            },
            {
              "internalType": "uint8",
              "name": "roll0",
              "type": "uint8"
            },
            {
              "internalType": "uint8",
              "name": "roll1",
              "type": "uint8"
            },
            {
              "internalType": "uint8",
              "name": "roll2",
              "type": "uint8"
            },
            {
              "internalType": "uint256",
              "name": "prize",
              "type": "uint256"
            },
            {
              "internalType": "uint256",
              "name": "timestamp",
              "type": "uint256"
            }
          ],
          "internalType": "struct ChuckALuck.Bet[]",
          "name": "",
          "type": "tuple[]"
        }
      ],
      "stateMutability": "view",
      "type": "function"
    }
  ],
  "bytecode": "0x60806040526200004f6040518060400160405280601681526020017f436875636b414c75636b20436f6e7374727563746f72000000000000000000008152506200005560201b620005b71760201c565b620001e9565b620000f5816040516024016200006c919062000162565b6040516020818303038152906040527f41304fac000000000000000000000000000000000000000000000000000000007bffffffffffffffffffffffffffffffffffffffffffffffffffffffff19166020820180517bffffffffffffffffffffffffffffffffffffffffffffffffffffffff8381831617835250505050620000f860201b60201c565b50565b60008151905060006a636f6e736f6c652e6c6f679050602083016000808483855afa5050505050565b60006200012e8262000186565b6200013a818562000191565b93506200014c818560208601620001a2565b6200015781620001d8565b840191505092915050565b600060208201905081810360008301526200017e818462000121565b905092915050565b600081519050919050565b600082825260208201905092915050565b60005b83811015620001c2578082015181840152602081019050620001a5565b83811115620001d2576000848401525b50505050565b6000601f19601f8301169050919050565b610fd180620001f96000396000f3fe6080604052600436106100295760003560e01c8063700eae731461002e578063d0821b0e14610059575b600080fd5b34801561003a57600080fd5b50610043610089565b6040516100509190610c2c565b60405180910390f35b610073600480360381019061006e9190610908565b6101d1565b6040516100809190610d48565b60405180910390f35b60606000805480602002602001604051908101604052809291908181526020016000905b828210156101c85783829060005260206000209060050201604051806101000160405290816000820160009054906101000a900473ffffffffffffffffffffffffffffffffffffffff1673ffffffffffffffffffffffffffffffffffffffff1673ffffffffffffffffffffffffffffffffffffffff1681526020016000820160149054906101000a900460ff1660ff1660ff168152602001600182015481526020016002820160009054906101000a900460ff1660ff1660ff1681526020016002820160019054906101000a900460ff1660ff1660ff1681526020016002820160029054906101000a900460ff1660ff1660ff16815260200160038201548152602001600482015481525050815260200190600101906100ad565b50505050905090565b60006102176040518060400160405280601f81526020017f57616c6c65742025732c206f6e206e756d6265722025732c2062657420257300815250338460ff1634610650565b600061022360006106f2565b9050600061023160016106f2565b9050600061023f60026106f2565b905061028b6040518060400160405280601c81526020017f726f6c6c302025732020726f6c6c312025732020726f6c6c32202573000000008152508460ff168460ff168460ff16610735565b60008560ff168460ff1614156102e85734816102a79190610e08565b90506102e76040518060400160405280600581526020017f626f6e67300000000000000000000000000000000000000000000000000000008152506105b7565b5b8560ff168360ff1614156103435734816103029190610e08565b90506103426040518060400160405280600581526020017f626f6e67310000000000000000000000000000000000000000000000000000008152506105b7565b5b8560ff168260ff16141561039e57348161035d9190610e08565b905061039d6040518060400160405280600581526020017f626f6e67320000000000000000000000000000000000000000000000000000008152506105b7565b5b600081146103fc5734816103b29190610e08565b90506103bd816107d7565b6103fb6040518060400160405280600b81526020017f626f6e67204d41535445520000000000000000000000000000000000000000008152506105b7565b5b7f164aba0dd9d84262e5e33ca772720f475c91cb333ea8e1feb59fa116fe196dc3848484846040516104319493929190610d63565b60405180910390a160006040518061010001604052803373ffffffffffffffffffffffffffffffffffffffff1681526020018860ff1681526020013481526020018660ff1681526020018560ff1681526020018460ff16815260200183815260200142815250908060018154018082558091505060019003906000526020600020906005020160009091909190915060008201518160000160006101000a81548173ffffffffffffffffffffffffffffffffffffffff021916908373ffffffffffffffffffffffffffffffffffffffff16021790555060208201518160000160146101000a81548160ff021916908360ff1602179055506040820151816001015560608201518160020160006101000a81548160ff021916908360ff16021790555060808201518160020160016101000a81548160ff021916908360ff16021790555060a08201518160020160026101000a81548160ff021916908360ff16021790555060c0820151816003015560e08201518160040155505080945050505050919050565b61064d816040516024016105cb9190610c4e565b6040516020818303038152906040527f41304fac000000000000000000000000000000000000000000000000000000007bffffffffffffffffffffffffffffffffffffffffffffffffffffffff19166020820180517bffffffffffffffffffffffffffffffffffffffffffffffffffffffff83818316178352505050506108ca565b50565b6106ec8484848460405160240161066a9493929190610c70565b6040516020818303038152906040527fdaa394bd000000000000000000000000000000000000000000000000000000007bffffffffffffffffffffffffffffffffffffffffffffffffffffffff19166020820180517bffffffffffffffffffffffffffffffffffffffffffffffffffffffff83818316178352505050506108ca565b50505050565b6000600642448460405160200161070b93929190610bef565b6040516020818303038152906040528051906020012060001c61072e9190610ee4565b9050919050565b6107d18484848460405160240161074f9493929190610cbc565b6040516020818303038152906040527f08ee5666000000000000000000000000000000000000000000000000000000007bffffffffffffffffffffffffffffffffffffffffffffffffffffffff19166020820180517bffffffffffffffffffffffffffffffffffffffffffffffffffffffff83818316178352505050506108ca565b50505050565b4781111561081a576040517f08c379a000000000000000000000000000000000000000000000000000000000815260040161081190610d08565b60405180910390fd5b60003373ffffffffffffffffffffffffffffffffffffffff168260405161084090610bda565b60006040518083038185875af1925050503d806000811461087d576040519150601f19603f3d011682016040523d82523d6000602084013e610882565b606091505b50509050806108c6576040517f08c379a00000000000000000000000000000000000000000000000000000000081526004016108bd90610d28565b60405180910390fd5b5050565b60008151905060006a636f6e736f6c652e6c6f679050602083016000808483855afa5050505050565b60008135905061090281610f84565b92915050565b60006020828403121561091a57600080fd5b6000610928848285016108f3565b91505092915050565b600061093d8383610ae5565b6101008301905092915050565b61095381610e5e565b82525050565b61096281610e5e565b82525050565b600061097382610db8565b61097d8185610ddb565b935061098883610da8565b8060005b838110156109b95781516109a08882610931565b97506109ab83610dce565b92505060018101905061098c565b5085935050505092915050565b60006109d182610dc3565b6109db8185610df7565b93506109eb818560208601610ea7565b6109f481610f73565b840191505092915050565b6000610a0c603483610df7565b91507f547279696e6720746f207769746864726177206d6f7265206d6f6e657920746860008301527f616e2074686520636f6e7472616374206861732e0000000000000000000000006020830152604082019050919050565b6000610a72602783610df7565b91507f4661696c656420746f207769746864726177206d6f6e65792066726f6d20636f60008301527f6e74726163742e000000000000000000000000000000000000000000000000006020830152604082019050919050565b6000610ad8600083610dec565b9150600082019050919050565b61010082016000820151610afc600085018261094a565b506020820151610b0f6020850182610bbc565b506040820151610b226040850182610b87565b506060820151610b356060850182610bbc565b506080820151610b486080850182610bbc565b5060a0820151610b5b60a0850182610bbc565b5060c0820151610b6e60c0850182610b87565b5060e0820151610b8160e0850182610b87565b50505050565b610b9081610e90565b82525050565b610b9f81610e90565b82525050565b610bb6610bb182610e90565b610eda565b82525050565b610bc581610e9a565b82525050565b610bd481610e9a565b82525050565b6000610be582610acb565b9150819050919050565b6000610bfb8286610ba5565b602082019150610c0b8285610ba5565b602082019150610c1b8284610ba5565b602082019150819050949350505050565b60006020820190508181036000830152610c468184610968565b905092915050565b60006020820190508181036000830152610c6881846109c6565b905092915050565b60006080820190508181036000830152610c8a81876109c6565b9050610c996020830186610959565b610ca66040830185610b96565b610cb36060830184610b96565b95945050505050565b60006080820190508181036000830152610cd681876109c6565b9050610ce56020830186610b96565b610cf26040830185610b96565b610cff6060830184610b96565b95945050505050565b60006020820190508181036000830152610d21816109ff565b9050919050565b60006020820190508181036000830152610d4181610a65565b9050919050565b6000602082019050610d5d6000830184610b96565b92915050565b6000608082019050610d786000830187610bcb565b610d856020830186610bcb565b610d926040830185610bcb565b610d9f6060830184610b96565b95945050505050565b6000819050602082019050919050565b600081519050919050565b600081519050919050565b6000602082019050919050565b600082825260208201905092915050565b600081905092915050565b600082825260208201905092915050565b6000610e1382610e90565b9150610e1e83610e90565b9250827fffffffffffffffffffffffffffffffffffffffffffffffffffffffffffffffff03821115610e5357610e52610f15565b5b828201905092915050565b6000610e6982610e70565b9050919050565b600073ffffffffffffffffffffffffffffffffffffffff82169050919050565b6000819050919050565b600060ff82169050919050565b60005b83811015610ec5578082015181840152602081019050610eaa565b83811115610ed4576000848401525b50505050565b6000819050919050565b6000610eef82610e90565b9150610efa83610e90565b925082610f0a57610f09610f44565b5b828206905092915050565b7f4e487b7100000000000000000000000000000000000000000000000000000000600052601160045260246000fd5b7f4e487b7100000000000000000000000000000000000000000000000000000000600052601260045260246000fd5b6000601f19601f8301169050919050565b610f8d81610e9a565b8114610f9857600080fd5b5056fea26469706673582212201eb8def2a2dd9f898a2bc5a658b8f971d2ae8b9890090eb0a38882f4a99de3a164736f6c63430008000033",
  "linkReferences": {},
  "deployedLinkReferences": {}
}